{
	"data": {
		"bytecode": {
			"linkReferences": {},
			"object": "61035861004e600b8282823980515f1a607314610042577f4e487b71000000000000000000000000000000000000000000000000000000005f525f60045260245ffd5b305f52607381538281f3fe730000000000000000000000000000000000000000301460806040526004361061009c575f3560e01c806375b238fc1161006f57806375b238fc14610118578063d539139314610136578063db9445ea14610154578063e5636e9814610172578063f0dadf2e146101905761009c565b8063040f45e4146100a057806312553493146100be578063282c51f3146100dc5780632cfc2c29146100fa575b5f80fd5b6100a86101ae565b6040516100b59190610309565b60405180910390f35b6100c66101d2565b6040516100d39190610309565b60405180910390f35b6100e46101f6565b6040516100f19190610309565b60405180910390f35b61010261021a565b60405161010f9190610309565b60405180910390f35b61012061023e565b60405161012d9190610309565b60405180910390f35b61013e610262565b60405161014b9190610309565b60405180910390f35b61015c610286565b6040516101699190610309565b60405180910390f35b61017a6102aa565b6040516101879190610309565b60405180910390f35b6101986102cd565b6040516101a59190610309565b60405180910390f35b7f5d119bbee3b9f43ba0ee91b101c0804c04444cacd8acd7ac74af53e82391a81b81565b7f7d68bf1bbfca11433739371f88e083717bf4136f2c11114366708c1d2a04306d81565b7f3c11d16cbaffd01df69ce1c404f6340ee057498f5f00246190ea54220576a84881565b7f776339db9b1bf7b4cc11df2d9e3faeafdec0e393c7d77e1c9d3e0168b00a14a981565b7fa49807205ce4d355092ef5a8a18f56e8913cf4a201fbe287825b095693c2177581565b7f9f2df0fed2c77648de5860a4cc508cd0818c85b8b8a1ab4ceeef8d981c8956a681565b7f2491a92519edd422a8e1995e1eb45f8b1778da1d14758f83755c3b82d7aaee1781565b7e879fd6837669fabc6aef76234b8a59f97200ed344c21acc3a48a4245ae203881565b7f870f945ceea6af1a999d04197922ad26f388d54d5bbd95b4b3adb7632d2651fb81565b5f819050919050565b610303816102f1565b82525050565b5f60208201905061031c5f8301846102fa565b9291505056fea2646970667358221220daae3166e0d89594285c3719388b0b18b1b9ac56946a2ed533e0a39f6158e33764736f6c63430008140033",
			"opcodes": "PUSH2 0x358 PUSH2 0x4E PUSH1 0xB DUP3 DUP3 DUP3 CODECOPY DUP1 MLOAD PUSH0 BYTE PUSH1 0x73 EQ PUSH2 0x42 JUMPI PUSH32 0x4E487B7100000000000000000000000000000000000000000000000000000000 PUSH0 MSTORE PUSH0 PUSH1 0x4 MSTORE PUSH1 0x24 PUSH0 REVERT JUMPDEST ADDRESS PUSH0 MSTORE PUSH1 0x73 DUP2 MSTORE8 DUP3 DUP2 RETURN INVALID PUSH20 0x0 ADDRESS EQ PUSH1 0x80 PUSH1 0x40 MSTORE PUSH1 0x4 CALLDATASIZE LT PUSH2 0x9C JUMPI PUSH0 CALLDATALOAD PUSH1 0xE0 SHR DUP1 PUSH4 0x75B238FC GT PUSH2 0x6F JUMPI DUP1 PUSH4 0x75B238FC EQ PUSH2 0x118 JUMPI DUP1 PUSH4 0xD5391393 EQ PUSH2 0x136 JUMPI DUP1 PUSH4 0xDB9445EA EQ PUSH2 0x154 JUMPI DUP1 PUSH4 0xE5636E98 EQ PUSH2 0x172 JUMPI DUP1 PUSH4 0xF0DADF2E EQ PUSH2 0x190 JUMPI PUSH2 0x9C JUMP JUMPDEST DUP1 PUSH4 0x40F45E4 EQ PUSH2 0xA0 JUMPI DUP1 PUSH4 0x12553493 EQ PUSH2 0xBE JUMPI DUP1 PUSH4 0x282C51F3 EQ PUSH2 0xDC JUMPI DUP1 PUSH4 0x2CFC2C29 EQ PUSH2 0xFA JUMPI JUMPDEST PUSH0 DUP1 REVERT JUMPDEST PUSH2 0xA8 PUSH2 0x1AE JUMP JUMPDEST PUSH1 0x40 MLOAD PUSH2 0xB5 SWAP2 SWAP1 PUSH2 0x309 JUMP JUMPDEST PUSH1 0x40 MLOAD DUP1 SWAP2 SUB SWAP1 RETURN JUMPDEST PUSH2 0xC6 PUSH2 0x1D2 JUMP JUMPDEST PUSH1 0x40 MLOAD PUSH2 0xD3 SWAP2 SWAP1 PUSH2 0x309 JUMP JUMPDEST PUSH1 0x40 MLOAD DUP1 SWAP2 SUB SWAP1 RETURN JUMPDEST PUSH2 0xE4 PUSH2 0x1F6 JUMP JUMPDEST PUSH1 0x40 MLOAD PUSH2 0xF1 SWAP2 SWAP1 PUSH2 0x309 JUMP JUMPDEST PUSH1 0x40 MLOAD DUP1 SWAP2 SUB SWAP1 RETURN JUMPDEST PUSH2 0x102 PUSH2 0x21A JUMP JUMPDEST PUSH1 0x40 MLOAD PUSH2 0x10F SWAP2 SWAP1 PUSH2 0x309 JUMP JUMPDEST PUSH1 0x40 MLOAD DUP1 SWAP2 SUB SWAP1 RETURN JUMPDEST PUSH2 0x120 PUSH2 0x23E JUMP JUMPDEST PUSH1 0x40 MLOAD PUSH2 0x12D SWAP2 SWAP1 PUSH2 0x309 JUMP JUMPDEST PUSH1 0x40 MLOAD DUP1 SWAP2 SUB SWAP1 RETURN JUMPDEST PUSH2 0x13E PUSH2 0x262 JUMP JUMPDEST PUSH1 0x40 MLOAD PUSH2 0x14B SWAP2 SWAP1 PUSH2 0x309 JUMP JUMPDEST PUSH1 0x40 MLOAD DUP1 SWAP2 SUB SWAP1 RETURN JUMPDEST PUSH2 0x15C PUSH2 0x286 JUMP JUMPDEST PUSH1 0x40 MLOAD PUSH2 0x169 SWAP2 SWAP1 PUSH2 0x309 JUMP JUMPDEST PUSH1 0x40 MLOAD DUP1 SWAP2 SUB SWAP1 RETURN JUMPDEST PUSH2 0x17A PUSH2 0x2AA JUMP JUMPDEST PUSH1 0x40 MLOAD PUSH2 0x187 SWAP2 SWAP1 PUSH2 0x309 JUMP JUMPDEST PUSH1 0x40 MLOAD DUP1 SWAP2 SUB SWAP1 RETURN JUMPDEST PUSH2 0x198 PUSH2 0x2CD JUMP JUMPDEST PUSH1 0x40 MLOAD PUSH2 0x1A5 SWAP2 SWAP1 PUSH2 0x309 JUMP JUMPDEST PUSH1 0x40 MLOAD DUP1 SWAP2 SUB SWAP1 RETURN JUMPDEST PUSH32 0x5D119BBEE3B9F43BA0EE91B101C0804C04444CACD8ACD7AC74AF53E82391A81B DUP2 JUMP JUMPDEST PUSH32 0x7D68BF1BBFCA11433739371F88E083717BF4136F2C11114366708C1D2A04306D DUP2 JUMP JUMPDEST PUSH32 0x3C11D16CBAFFD01DF69CE1C404F6340EE057498F5F00246190EA54220576A848 DUP2 JUMP JUMPDEST PUSH32 0x776339DB9B1BF7B4CC11DF2D9E3FAEAFDEC0E393C7D77E1C9D3E0168B00A14A9 DUP2 JUMP JUMPDEST PUSH32 0xA49807205CE4D355092EF5A8A18F56E8913CF4A201FBE287825B095693C21775 DUP2 JUMP JUMPDEST PUSH32 0x9F2DF0FED2C77648DE5860A4CC508CD0818C85B8B8A1AB4CEEEF8D981C8956A6 DUP2 JUMP JUMPDEST PUSH32 0x2491A92519EDD422A8E1995E1EB45F8B1778DA1D14758F83755C3B82D7AAEE17 DUP2 JUMP JUMPDEST PUSH31 0x879FD6837669FABC6AEF76234B8A59F97200ED344C21ACC3A48A4245AE2038 DUP2 JUMP JUMPDEST PUSH32 0x870F945CEEA6AF1A999D04197922AD26F388D54D5BBD95B4B3ADB7632D2651FB DUP2 JUMP JUMPDEST PUSH0 DUP2 SWAP1 POP SWAP2 SWAP1 POP JUMP JUMPDEST PUSH2 0x303 DUP2 PUSH2 0x2F1 JUMP JUMPDEST DUP3 MSTORE POP POP JUMP JUMPDEST PUSH0 PUSH1 0x20 DUP3 ADD SWAP1 POP PUSH2 0x31C PUSH0 DUP4 ADD DUP5 PUSH2 0x2FA JUMP JUMPDEST SWAP3 SWAP2 POP POP JUMP INVALID LOG2 PUSH5 0x6970667358 0x22 SLT KECCAK256 0xDA 0xAE BALANCE PUSH7 0xE0D89594285C37 NOT CODESIZE DUP12 SIGNEXTEND XOR 0xB1 0xB9 0xAC JUMP SWAP5 PUSH11 0x2ED533E0A39F6158E33764 PUSH20 0x6F6C634300081400330000000000000000000000 "
		},
		"gasEstimates": {
			"creation": {
				"codeDepositCost": "171200",
				"executionCost": "240",
				"totalCost": "171440"
			},
			"external": {
				"ADMIN_ROLE()": "309",
				"AMT_DEPOSIT_POOL()": "376",
				"AMT_REWARD_POOL()": "375",
				"AMT_WITHDRAWAL_MANAGER()": "310",
				"ART_METIS()": "353",
				"BURNER_ROLE()": "354",
				"L1_STAKING_POOL()": "332",
				"METIS()": "397",
				"MINTER_ROLE()": "331"
			}
		},
		"methodIdentifiers": {
			"ADMIN_ROLE()": "75b238fc",
			"AMT_DEPOSIT_POOL()": "2cfc2c29",
			"AMT_REWARD_POOL()": "e5636e98",
			"AMT_WITHDRAWAL_MANAGER()": "040f45e4",
			"ART_METIS()": "db9445ea",
			"BURNER_ROLE()": "282c51f3",
			"L1_STAKING_POOL()": "12553493",
			"METIS()": "f0dadf2e",
			"MINTER_ROLE()": "d5391393"
		}
	},
	"abi": [
		{
			"inputs": [],
			"name": "ADMIN_ROLE",
			"outputs": [
				{
					"internalType": "bytes32",
					"name": "",
					"type": "bytes32"
				}
			],
			"stateMutability": "view",
			"type": "function"
		},
		{
			"inputs": [],
			"name": "AMT_DEPOSIT_POOL",
			"outputs": [
				{
					"internalType": "bytes32",
					"name": "",
					"type": "bytes32"
				}
			],
			"stateMutability": "view",
			"type": "function"
		},
		{
			"inputs": [],
			"name": "AMT_REWARD_POOL",
			"outputs": [
				{
					"internalType": "bytes32",
					"name": "",
					"type": "bytes32"
				}
			],
			"stateMutability": "view",
			"type": "function"
		},
		{
			"inputs": [],
			"name": "AMT_WITHDRAWAL_MANAGER",
			"outputs": [
				{
					"internalType": "bytes32",
					"name": "",
					"type": "bytes32"
				}
			],
			"stateMutability": "view",
			"type": "function"
		},
		{
			"inputs": [],
			"name": "ART_METIS",
			"outputs": [
				{
					"internalType": "bytes32",
					"name": "",
					"type": "bytes32"
				}
			],
			"stateMutability": "view",
			"type": "function"
		},
		{
			"inputs": [],
			"name": "BURNER_ROLE",
			"outputs": [
				{
					"internalType": "bytes32",
					"name": "",
					"type": "bytes32"
				}
			],
			"stateMutability": "view",
			"type": "function"
		},
		{
			"inputs": [],
			"name": "L1_STAKING_POOL",
			"outputs": [
				{
					"internalType": "bytes32",
					"name": "",
					"type": "bytes32"
				}
			],
			"stateMutability": "view",
			"type": "function"
		},
		{
			"inputs": [],
			"name": "METIS",
			"outputs": [
				{
					"internalType": "bytes32",
					"name": "",
					"type": "bytes32"
				}
			],
			"stateMutability": "view",
			"type": "function"
		},
		{
			"inputs": [],
			"name": "MINTER_ROLE",
			"outputs": [
				{
					"internalType": "bytes32",
					"name": "",
					"type": "bytes32"
				}
			],
			"stateMutability": "view",
			"type": "function"
		}
	]
}